{
  "contractName": "Payroll",
  "abi": [
    {
      "constant": true,
      "inputs": [],
      "name": "owner",
      "outputs": [
        {
          "name": "",
          "type": "address"
        }
      ],
      "payable": false,
      "stateMutability": "view",
      "type": "function"
    },
    {
      "constant": true,
      "inputs": [
        {
          "name": "",
          "type": "address"
        }
      ],
      "name": "employees",
      "outputs": [
        {
          "name": "id",
          "type": "address"
        },
        {
          "name": "salary",
          "type": "uint256"
        },
        {
          "name": "lastPayday",
          "type": "uint256"
        },
        {
          "name": "number",
          "type": "uint256"
        }
      ],
      "payable": false,
      "stateMutability": "view",
      "type": "function"
    },
    {
      "constant": false,
      "inputs": [
        {
          "name": "newOwner",
          "type": "address"
        }
      ],
      "name": "transferOwnership",
      "outputs": [],
      "payable": false,
      "stateMutability": "nonpayable",
      "type": "function"
    },
    {
      "anonymous": false,
      "inputs": [
        {
          "indexed": false,
          "name": "employee",
          "type": "address"
        }
      ],
      "name": "NewEmployee",
      "type": "event"
    },
    {
      "anonymous": false,
      "inputs": [
        {
          "indexed": false,
          "name": "employee",
          "type": "address"
        }
      ],
      "name": "UpdateEmployee",
      "type": "event"
    },
    {
      "anonymous": false,
      "inputs": [
        {
          "indexed": false,
          "name": "employee",
          "type": "address"
        }
      ],
      "name": "RemoveEmployee",
      "type": "event"
    },
    {
      "anonymous": false,
      "inputs": [
        {
          "indexed": false,
          "name": "balance",
          "type": "uint256"
        }
      ],
      "name": "NewFund",
      "type": "event"
    },
    {
      "anonymous": false,
      "inputs": [
        {
          "indexed": false,
          "name": "employee",
          "type": "address"
        }
      ],
      "name": "GetPaid",
      "type": "event"
    },
    {
      "anonymous": false,
      "inputs": [
        {
          "indexed": true,
          "name": "previousOwner",
          "type": "address"
        },
        {
          "indexed": true,
          "name": "newOwner",
          "type": "address"
        }
      ],
      "name": "OwnershipTransferred",
      "type": "event"
    },
    {
      "constant": false,
      "inputs": [
        {
          "name": "index",
          "type": "uint256"
        }
      ],
      "name": "checkEmployee",
      "outputs": [
        {
          "name": "employeeId",
          "type": "address"
        },
        {
          "name": "salary",
          "type": "uint256"
        },
        {
          "name": "lastPayday",
          "type": "uint256"
        },
        {
          "name": "number",
          "type": "uint256"
        }
      ],
      "payable": false,
      "stateMutability": "nonpayable",
      "type": "function"
    },
    {
      "constant": false,
      "inputs": [],
      "name": "searchEmployees",
      "outputs": [
        {
          "components": [
            {
              "name": "id",
              "type": "address"
            },
            {
              "name": "salary",
              "type": "uint256"
            },
            {
              "name": "lastPayday",
              "type": "uint256"
            },
            {
              "name": "number",
              "type": "uint256"
            }
          ],
          "name": "employeeArray",
          "type": "tuple[]"
        }
      ],
      "payable": false,
      "stateMutability": "nonpayable",
      "type": "function"
    },
    {
      "constant": false,
      "inputs": [
        {
          "name": "employeeId",
          "type": "address"
        },
        {
          "name": "salary",
          "type": "uint256"
        },
        {
          "name": "number",
          "type": "uint256"
        }
      ],
      "name": "addEmployee",
      "outputs": [],
      "payable": false,
      "stateMutability": "nonpayable",
      "type": "function"
    },
    {
      "constant": false,
      "inputs": [
        {
          "name": "employeeId",
          "type": "address"
        }
      ],
      "name": "removeEmployee",
      "outputs": [],
      "payable": false,
      "stateMutability": "nonpayable",
      "type": "function"
    },
    {
      "constant": false,
      "inputs": [
        {
          "name": "employeeId",
          "type": "address"
        },
        {
          "name": "salary",
          "type": "uint256"
        }
      ],
      "name": "updateEmployee",
      "outputs": [],
      "payable": false,
      "stateMutability": "nonpayable",
      "type": "function"
    },
    {
      "constant": false,
      "inputs": [],
      "name": "addFund",
      "outputs": [
        {
          "name": "",
          "type": "uint256"
        }
      ],
      "payable": true,
      "stateMutability": "payable",
      "type": "function"
    },
    {
      "constant": false,
      "inputs": [],
      "name": "calculateRunway",
      "outputs": [
        {
          "name": "",
          "type": "uint256"
        }
      ],
      "payable": false,
      "stateMutability": "nonpayable",
      "type": "function"
    },
    {
      "constant": false,
      "inputs": [],
      "name": "hasEnoughFund",
      "outputs": [
        {
          "name": "",
          "type": "bool"
        }
      ],
      "payable": false,
      "stateMutability": "nonpayable",
      "type": "function"
    },
    {
      "constant": false,
      "inputs": [],
      "name": "getPaid",
      "outputs": [],
      "payable": false,
      "stateMutability": "nonpayable",
      "type": "function"
    },
    {
      "constant": false,
      "inputs": [],
      "name": "checkInfo",
      "outputs": [
        {
          "name": "balance",
          "type": "uint256"
        },
        {
          "name": "runway",
          "type": "uint256"
        },
        {
          "name": "employeeCount",
          "type": "uint256"
        }
      ],
      "payable": false,
      "stateMutability": "nonpayable",
      "type": "function"
    },
    {
      "constant": false,
      "inputs": [],
      "name": "checkOwner",
      "outputs": [
        {
          "name": "_address",
          "type": "address"
        }
      ],
      "payable": false,
      "stateMutability": "nonpayable",
      "type": "function"
    },
    {
      "constant": false,
      "inputs": [],
      "name": "checkSender",
      "outputs": [
        {
          "name": "_address",
          "type": "address"
        }
      ],
      "payable": false,
      "stateMutability": "nonpayable",
      "type": "function"
    }
  ],
  "bytecode": "0x6060604052336000806101000a81548173ffffffffffffffffffffffffffffffffffffffff021916908373ffffffffffffffffffffffffffffffffffffffff16021790555061169b806100536000396000f3006060604052600436106100db576000357c0100000000000000000000000000000000000000000000000000000000900463ffffffff16806323fed09e146100e057806347fb0bed1461010d5780634ec19512146101625780635e91d8ec1461018b57806385a96258146101cd5780638da5cb5b1461020457806396b0269614610259578063a2f09dfa146102d1578063cdbce03d146102ef578063cf41d6f814610344578063d067894714610359578063d108177a146103e7578063d85d7fcb14610420578063f2fde38b14610485578063f39d0aeb146104be575b600080fd5b34156100eb57600080fd5b6100f3610509565b604051808215151515815260200191505060405180910390f35b341561011857600080fd5b61012061051a565b604051808273ffffffffffffffffffffffffffffffffffffffff1673ffffffffffffffffffffffffffffffffffffffff16815260200191505060405180910390f35b341561016d57600080fd5b610175610522565b6040518082815260200191505060405180910390f35b341561019657600080fd5b6101cb600480803573ffffffffffffffffffffffffffffffffffffffff16906020019091908035906020019091905050610555565b005b34156101d857600080fd5b6101e0610895565b60405180848152602001838152602001828152602001935050505060405180910390f35b341561020f57600080fd5b6102176108c5565b604051808273ffffffffffffffffffffffffffffffffffffffff1673ffffffffffffffffffffffffffffffffffffffff16815260200191505060405180910390f35b341561026457600080fd5b61027a60048080359060200190919050506108ea565b604051808573ffffffffffffffffffffffffffffffffffffffff1673ffffffffffffffffffffffffffffffffffffffff16815260200184815260200183815260200182815260200194505050505060405180910390f35b6102d961098d565b6040518082815260200191505060405180910390f35b34156102fa57600080fd5b6103026109fa565b604051808273ffffffffffffffffffffffffffffffffffffffff1673ffffffffffffffffffffffffffffffffffffffff16815260200191505060405180910390f35b341561034f57600080fd5b610357610a23565b005b341561036457600080fd5b610390600480803573ffffffffffffffffffffffffffffffffffffffff16906020019091905050610c17565b604051808573ffffffffffffffffffffffffffffffffffffffff1673ffffffffffffffffffffffffffffffffffffffff16815260200184815260200183815260200182815260200194505050505060405180910390f35b34156103f257600080fd5b61041e600480803573ffffffffffffffffffffffffffffffffffffffff16906020019091905050610c67565b005b341561042b57600080fd5b610433610f3e565b60405180806020018281038252838181518152602001915080516000925b818410156104745782849060200190602002015181526020019260010192610451565b925050509250505060405180910390f35b341561049057600080fd5b6104bc600480803573ffffffffffffffffffffffffffffffffffffffff16906020019091905050611068565b005b34156104c957600080fd5b610507600480803573ffffffffffffffffffffffffffffffffffffffff169060200190919080359060200190919080359060200190919050506111bd565b005b600080610514610522565b11905090565b600033905090565b60006105506001543073ffffffffffffffffffffffffffffffffffffffff16316114df90919063ffffffff16565b905090565b60008060009054906101000a900473ffffffffffffffffffffffffffffffffffffffff1673ffffffffffffffffffffffffffffffffffffffff163373ffffffffffffffffffffffffffffffffffffffff161415156105b257600080fd5b826000600460008373ffffffffffffffffffffffffffffffffffffffff1673ffffffffffffffffffffffffffffffffffffffff168152602001908152602001600020905060008160000160009054906101000a900473ffffffffffffffffffffffffffffffffffffffff1673ffffffffffffffffffffffffffffffffffffffff161415151561063d57fe5b600460008673ffffffffffffffffffffffffffffffffffffffff1673ffffffffffffffffffffffffffffffffffffffff168152602001908152602001600020925061070783608060405190810160405290816000820160009054906101000a900473ffffffffffffffffffffffffffffffffffffffff1673ffffffffffffffffffffffffffffffffffffffff1673ffffffffffffffffffffffffffffffffffffffff16815260200160018201548152602001600282015481526020016003820154815250506114fa565b61072083600101546001546115a090919063ffffffff16565b600181905550610741670de0b6b3a7640000856115b990919063ffffffff16565b600460008773ffffffffffffffffffffffffffffffffffffffff1673ffffffffffffffffffffffffffffffffffffffff1681526020019081526020016000206001018190555042600460008773ffffffffffffffffffffffffffffffffffffffff1673ffffffffffffffffffffffffffffffffffffffff16815260200190815260200160002060020181905550610825600460008773ffffffffffffffffffffffffffffffffffffffff1673ffffffffffffffffffffffffffffffffffffffff168152602001908152602001600020600101546001546115ec90919063ffffffff16565b6001819055507f488bacda22fcd72c26e796890d62491cef03e8de61cad515b1826a683f2e760f85604051808273ffffffffffffffffffffffffffffffffffffffff1673ffffffffffffffffffffffffffffffffffffffff16815260200191505060405180910390a15050505050565b60008060003073ffffffffffffffffffffffffffffffffffffffff16319250600380549050905060009150909192565b6000809054906101000a900473ffffffffffffffffffffffffffffffffffffffff1681565b600080600080600060038681548110151561090157fe5b906000526020600020900160009054906101000a900473ffffffffffffffffffffffffffffffffffffffff169450600460008673ffffffffffffffffffffffffffffffffffffffff1673ffffffffffffffffffffffffffffffffffffffff1681526020019081526020016000209050806001015493508060020154925080600301549150509193509193565b60007fbe1e4b1ad5d83f75925e2f00ab046fbab2ee90d0dbdf7f2049d037a48ada09f33073ffffffffffffffffffffffffffffffffffffffff16316040518082815260200191505060405180910390a13073ffffffffffffffffffffffffffffffffffffffff1631905090565b60008060009054906101000a900473ffffffffffffffffffffffffffffffffffffffff16905090565b600080336000600460008373ffffffffffffffffffffffffffffffffffffffff1673ffffffffffffffffffffffffffffffffffffffff168152602001908152602001600020905060008160000160009054906101000a900473ffffffffffffffffffffffffffffffffffffffff1673ffffffffffffffffffffffffffffffffffffffff1614151515610ab157fe5b600460003373ffffffffffffffffffffffffffffffffffffffff1673ffffffffffffffffffffffffffffffffffffffff1681526020019081526020016000209350610b0c62278d0085600201546115ec90919063ffffffff16565b92504283101515610b1957fe5b8284600201819055508360000160009054906101000a900473ffffffffffffffffffffffffffffffffffffffff1673ffffffffffffffffffffffffffffffffffffffff166108fc85600101549081150290604051600060405180830381858888f193505050501515610b8a57600080fd5b7f7decdec0fa70b21ecd45a15b04d5f5313c8fc915a1b3c034aa2bffa4fc8fc5918460000160009054906101000a900473ffffffffffffffffffffffffffffffffffffffff16604051808273ffffffffffffffffffffffffffffffffffffffff1673ffffffffffffffffffffffffffffffffffffffff16815260200191505060405180910390a150505050565b60046020528060005260406000206000915090508060000160009054906101000a900473ffffffffffffffffffffffffffffffffffffffff16908060010154908060020154908060030154905084565b60008060009054906101000a900473ffffffffffffffffffffffffffffffffffffffff1673ffffffffffffffffffffffffffffffffffffffff163373ffffffffffffffffffffffffffffffffffffffff16141515610cc457600080fd5b816000600460008373ffffffffffffffffffffffffffffffffffffffff1673ffffffffffffffffffffffffffffffffffffffff168152602001908152602001600020905060008160000160009054906101000a900473ffffffffffffffffffffffffffffffffffffffff1673ffffffffffffffffffffffffffffffffffffffff1614151515610d4f57fe5b600460008573ffffffffffffffffffffffffffffffffffffffff1673ffffffffffffffffffffffffffffffffffffffff1681526020019081526020016000209250610e1983608060405190810160405290816000820160009054906101000a900473ffffffffffffffffffffffffffffffffffffffff1673ffffffffffffffffffffffffffffffffffffffff1673ffffffffffffffffffffffffffffffffffffffff16815260200160018201548152602001600282015481526020016003820154815250506114fa565b610e3283600101546001546115a090919063ffffffff16565b600181905550600460008573ffffffffffffffffffffffffffffffffffffffff1673ffffffffffffffffffffffffffffffffffffffff168152602001908152602001600020600080820160006101000a81549073ffffffffffffffffffffffffffffffffffffffff02191690556001820160009055600282016000905560038201600090555050610ecf60016002546115a090919063ffffffff16565b6002819055507f52d6abdca596d1c4a93f3df131dcf3a55ecaaa92ab3a0be58a15b98aab12d49b84604051808273ffffffffffffffffffffffffffffffffffffffff1673ffffffffffffffffffffffffffffffffffffffff16815260200191505060405180910390a150505050565b610f4661160a565b60008060008092505b6002548360ff1610156110625760038360ff16815481101515610f6e57fe5b906000526020600020900160009054906101000a900473ffffffffffffffffffffffffffffffffffffffff169150600460008373ffffffffffffffffffffffffffffffffffffffff1673ffffffffffffffffffffffffffffffffffffffff16815260200190815260200160002090508060010154848460ff16815181101515610ff357fe5b9060200190602002015160200181815250508060020154848460ff1681518110151561101b57fe5b9060200190602002015160400181815250508060020154848460ff1681518110151561104357fe5b9060200190602002015160600181815250508280600101935050610f4f565b50505090565b6000809054906101000a900473ffffffffffffffffffffffffffffffffffffffff1673ffffffffffffffffffffffffffffffffffffffff163373ffffffffffffffffffffffffffffffffffffffff161415156110c357600080fd5b600073ffffffffffffffffffffffffffffffffffffffff168173ffffffffffffffffffffffffffffffffffffffff16141515156110ff57600080fd5b8073ffffffffffffffffffffffffffffffffffffffff166000809054906101000a900473ffffffffffffffffffffffffffffffffffffffff1673ffffffffffffffffffffffffffffffffffffffff167f8be0079c531659141344cd1fd0a4f28419497f9722a3daafe3b4186f6b6457e060405160405180910390a3806000806101000a81548173ffffffffffffffffffffffffffffffffffffffff021916908373ffffffffffffffffffffffffffffffffffffffff16021790555050565b60008060009054906101000a900473ffffffffffffffffffffffffffffffffffffffff1673ffffffffffffffffffffffffffffffffffffffff163373ffffffffffffffffffffffffffffffffffffffff1614151561121a57600080fd5b600460008573ffffffffffffffffffffffffffffffffffffffff1673ffffffffffffffffffffffffffffffffffffffff168152602001908152602001600020905060008160000160009054906101000a900473ffffffffffffffffffffffffffffffffffffffff1673ffffffffffffffffffffffffffffffffffffffff161415156112a157fe5b6080604051908101604052808573ffffffffffffffffffffffffffffffffffffffff1681526020016112e4670de0b6b3a7640000866115b990919063ffffffff16565b815260200142815260200183815250600460008673ffffffffffffffffffffffffffffffffffffffff1673ffffffffffffffffffffffffffffffffffffffff16815260200190815260200160002060008201518160000160006101000a81548173ffffffffffffffffffffffffffffffffffffffff021916908373ffffffffffffffffffffffffffffffffffffffff1602179055506020820151816001015560408201518160020155606082015181600301559050506113f1600460008673ffffffffffffffffffffffffffffffffffffffff1673ffffffffffffffffffffffffffffffffffffffff168152602001908152602001600020600101546001546115ec90919063ffffffff16565b60018190555061140d60016002546115ec90919063ffffffff16565b60028190555060038054806001018281611427919061161e565b9160005260206000209001600086909190916101000a81548173ffffffffffffffffffffffffffffffffffffffff021916908373ffffffffffffffffffffffffffffffffffffffff160217905550507f37e9308d0d750d43a2e5ef16b6d47b60b2741e12be41128ca3bec877db4f9dcb84604051808273ffffffffffffffffffffffffffffffffffffffff1673ffffffffffffffffffffffffffffffffffffffff16815260200191505060405180910390a150505050565b60008082848115156114ed57fe5b0490508091505092915050565b600080611515601584602001516114df90919063ffffffff16565b9150611555611546620151806115388660400151426115a090919063ffffffff16565b6114df90919063ffffffff16565b836115b990919063ffffffff16565b9050826000015173ffffffffffffffffffffffffffffffffffffffff166108fc829081150290604051600060405180830381858888f19350505050151561159b57600080fd5b505050565b60008282111515156115ae57fe5b818303905092915050565b600080828402905060008414806115da57508284828115156115d757fe5b04145b15156115e257fe5b8091505092915050565b600080828401905083811015151561160057fe5b8091505092915050565b602060405190810160405280600081525090565b81548183558181151161164557818360005260206000209182019101611644919061164a565b5b505050565b61166c91905b80821115611668576000816000905550600101611650565b5090565b905600a165627a7a723058207c16adc91a37fefc1447516341dba9fe6a1996f721d5af97742edb31fc25ddb50029",
  "source": "pragma solidity ^0.4.14;\n\nimport './SafeMath.sol';\nimport './Ownable.sol';\n\n\ncontract Payroll is Ownable {\n    using SafeMath for uint;\n\n    struct Employee {\n        address id;//用户地址\n        uint salary;//工资\n        uint lastPayday;//上次发工资时间\n        uint number;//用户编号\n    }\n\n    uint constant payDuration = 30 days;//每30天发一次工资\n\n    uint totalSalary;//总工资\n    uint totalEmployee;//总员工数\n    address[] employeeList;//员工的地址列表\n    mapping(address => Employee) public employees;//地址到员工工资情况的映射\n\n    event NewEmployee(\n        address employee\n    );\n    event UpdateEmployee(\n        address employee\n    );\n    event RemoveEmployee(\n        address employee\n    );\n    event NewFund(\n        uint balance\n    );\n    event GetPaid(\n        address employee\n    );\n//员工是否存在\n    modifier employeeExit(address employeeId) {\n        var employee = employees[employeeId];\n        assert(employee.id != 0x0);\n        _;\n    }\n//提前发工资\n    function _partialPaid(Employee employee) private {//支付部分工资\n        /* uint payment = employee.salary\n            .mul(now.sub(employee.lastPayday))//计算工资\n            .div(payDuration); */\n        uint daypayment = employee.salary.div(21);\n        uint payment = daypayment.mul(now.sub(employee.lastPayday).div(1 days));\n        employee.id.transfer(payment);\n    }\n//查询工资情况\n    function checkEmployee(uint index) returns (address employeeId, uint salary, uint lastPayday,uint number) {\n        employeeId = employeeList[index];\n        var employee = employees[employeeId];\n        salary = employee.salary;\n        lastPayday = employee.lastPayday;\n        number = employee.number;\n    }\n//查询所有员工工资情况\n    function searchEmployees() returns(Employee[] employeeArray){\n      for(var i = 0; i< totalEmployee; i++){\n        var id = employeeList[i];\n        var employee = employees[id];\n        employeeArray[i].salary = employee.salary;\n        employeeArray[i].lastPayday = employee.lastPayday;\n        employeeArray[i].number = employee.lastPayday;\n      }\n    }\n//添加员工\n    function addEmployee(address employeeId, uint salary, uint number) onlyOwner{\n        var employee = employees[employeeId];\n        assert(employee.id == 0x0);//检查员工是否存在\n\n        employees[employeeId] =  Employee(employeeId, salary.mul(1 ether), now,number);\n        totalSalary = totalSalary.add(employees[employeeId].salary);\n        totalEmployee = totalEmployee.add(1);\n        employeeList.push(employeeId);\n        NewEmployee(employeeId);//触发事件\n    }\n//删除员工\n    function removeEmployee(address employeeId) onlyOwner employeeExit(employeeId) {\n        var employee = employees[employeeId];\n\n        _partialPaid(employee);//结算工资\n        totalSalary = totalSalary.sub(employee.salary);\n        delete employees[employeeId];\n        totalEmployee = totalEmployee.sub(1);\n        RemoveEmployee(employeeId);\n    }\n//设置新工资\n    function updateEmployee(address employeeId, uint salary) onlyOwner employeeExit(employeeId) {\n        var employee = employees[employeeId];\n\n        _partialPaid(employee);\n        totalSalary = totalSalary.sub(employee.salary);\n        employees[employeeId].salary = salary.mul(1 ether);\n        employees[employeeId].lastPayday = now;\n        totalSalary = totalSalary.add(employees[employeeId].salary);\n        UpdateEmployee(employeeId);\n    }\n//????\n    function addFund() payable returns (uint) {\n        NewFund(this.balance);\n        return this.balance;\n    }\n\n    function calculateRunway() returns (uint) {\n        return this.balance.div(totalSalary);\n    }\n\n    function hasEnoughFund() returns (bool) {\n        return calculateRunway() > 0;\n    }\n\n    function getPaid() employeeExit(msg.sender) {\n        var employee = employees[msg.sender];\n\n        uint nextPayday = employee.lastPayday.add(payDuration);//下次发工资的时间\n        assert(nextPayday < now);\n\n        employee.lastPayday = nextPayday;//更新发工资日期\n        employee.id.transfer(employee.salary);\n        GetPaid(employee.id);\n    }\n\n    function checkInfo() returns (uint balance, uint runway, uint employeeCount) {\n        balance = this.balance;\n        employeeCount = employeeList.length;\n        runway = 0;\n        /* if (totalSalary > 0) {\n            runway = calculateRunway();\n        } */\n    }\n    function checkOwner() returns (address _address){\n      _address = owner;\n    }\n    function checkSender() returns(address _address){\n      _address = msg.sender;\n    }\n}\n",
  "sourcePath": "/home/xinlei/mydapp/contracts/Payroll.sol",
  "compiler": {
    "name": "solc",
    "version": "0.4.19+commit.c4cbbb05.Emscripten.clang"
  },
  "schemaVersion": "2.0.0",
  "updatedAt": "2018-04-14T12:05:23.295Z"
}